
OP_RETURN readme: https://www.siliconian.com/blog/16-bitcoin-blockchain/26-deconstructing-bitcoin-transaction-part-2-op-return
Blockstream link: https://blockstream.info/block/000000000000000000045f147cc39419ac74ac63631ed1e1cf530ef58fc1976f?expand

Version: 02000000
Unknown: 0001

Input Count: 01
Input TXID: 0000000000000000000000000000000000000000000000000000000000000000
Input VOUT: ffffffff
Input scriptSig Size: 23 (in hex, 35 in dec)
scriptSig: 03fef6090456048a5f2f6c756269616e2e636f6d2f633102ac8457c30aa95ea3e52800
Input sequence: ffffffff


Output count: 02 (in hex, 2 in dec)

Output amount 1: 0dd8022700000000
  2.6.5 :021 > swap_alternative("0dd8022700000000").to_i(16) => 654497805 (in satoshi)
Output scriptPubKey Length: 17 (in hex, 23 in dec)
Output scriptPubKey 1: a9141cb5bfbe3ce1ffb32da760730c08b99a597cbd2587

Output amount 2: 0000000000000000 (OP_RETURN)
  2.6.5 :021 > swap_alternative("0000000000000000").to_i(16) => 0 (in satoshi)
Output scriptPubKey Length: 26 (in hex, 38 in dec)
Output scriptPubKey 2: 6a24aa21a9ed2838286fc0112084ce3164a4c0729bc2adb1c9fd4a14acb23fe0204cd3feb0ba
Witness data: 0120000000000000000000000000000000000000000000000000000000000000
Locktime: 00000000

Whole Transaction
020000000001010000000000000000000000000000000000000000000000000000000000000000ffffffff2303fef6090456048a5f2f6c756269616e2e636f6d2f633102ac8457c30aa95ea3e52800ffffffff020dd802270000000017a9141cb5bfbe3ce1ffb32da760730c08b99a597cbd25870000000000000000266a24aa21a9ed2838286fc0112084ce3164a4c0729bc2adb1c9fd4a14acb23fe0204cd3feb0ba0120000000000000000000000000000000000000000000000000000000000000000000000000
