
OP_RETURN readme: https://www.siliconian.com/blog/16-bitcoin-blockchain/26-deconstructing-bitcoin-transaction-part-2-op-return
Blockstream link: https://blockstream.info/block/000000000000000000045f147cc39419ac74ac63631ed1e1cf530ef58fc1976f?expand

Version: 02000000
Unknown: 0001

Input Count: 01
Input TXID: 0000000000000000000000000000000000000000000000000000000000000000
Input VOUT: ffffffff
Input scriptSig Size: 23 (in hex, 35 in dec)
scriptSig: 03fef6090456048a5f2f6c756269616e2e636f6d2f633102ac8457c30aa95ea3e52800
Input sequence: ffffffff


Output count: 02 (in hex, 2 in dec)

Output amount 1: 0dd8022700000000
  2.6.5 :021 > swap_alternative("0dd8022700000000").to_i(16) => 654497805 (in satoshi)
Output scriptPubKey Length: 17 (in hex, 23 in dec)
Output scriptPubKey 1: a9141cb5bfbe3ce1ffb32da760730c08b99a597cbd2587

Output amount 2: 0000000000000000 (OP_RETURN)
  2.6.5 :021 > swap_alternative("0000000000000000").to_i(16) => 0 (in satoshi)
Output scriptPubKey Length: 26 (in hex, 38 in dec)
Output scriptPubKey 2: 6a24aa21a9ed2838286fc0112084ce3164a4c0729bc2adb1c9fd4a14acb23fe0204cd3feb0ba
Locktime: 01200000
Witness data: 0000000000000000000000000000000000000000000000000000000000000000

Whole Transaction
020000000001010000000000000000000000000000000000000000000000000000000000000000ffffffff2303fef6090456048a5f2f6c756269616e2e636f6d2f633102ac8457c30aa95ea3e52800ffffffff020dd802270000000017a9141cb5bfbe3ce1ffb32da760730c08b99a597cbd25870000000000000000266a24aa21a9ed2838286fc0112084ce3164a4c0729bc2adb1c9fd4a14acb23fe0204cd3feb0ba012000000000000000000000000000000000000000000000000000000000000000000000


0000020000000001014c3e8fdcbdb2d7771ceecea33790db2faf1e7e7fb30b4908e362b75f30e8620f0000000000ffffffff08dea8ea00000000001976a914690a705c92c496268bdf6294e6ad152426177d4088ac47210c000000000017a91486bb116c40df167ff1802cd565333aac2565a74a8720880f000000000017a9145873c70242f2be3a5ac7d9f6ee6d9cefd7d8d3ca87286da72300000000160014e33c8f6aae2b289b6080372a6b8ca21bd64857e7d78a43000000000017a9146b6e158872c4b2ee476bdbfc5b858e7002199453871fc221010000000017a9142d07f34e3a732c879dec7dafae4df31b61d8616987860602000000000017a9140895f56dc0b5daed9fa1fad7ad0218d4c1799bc08720cc0e000000000017a914bca4c7aa6ef215befdd0a2b286a74c4d1fb0a49d870247304402204be38bb1975b4d643b5c92c002bd4a14cd01a746511e383970675c8b26d398af022074b5a947aee8aef2752529dafc6a7512e79d91df00f222ccab1581f2c44890dd012102136ede1d2862ce7b4e2f514317eae3171b89707626a6b4527eab395291fa950500000000010000000001011a9c47c46070f83f096f871cf37eafe9d98d73ad18303d538b18743d7ca36be90100000000ffffffff0174196c00000000001976a9145908afb5dbda2f0d91a3c503bfa91286bdcbdb8a88ac02483045022100bda9d1ed986253dbeaca80ee01be36570a89b0257264cab41d011ae884673d560220715f74a16795a201fca092b6500a896d13f556fb74645bd0fb0f9cd91cab6ce3012103a2a5c997b98cb2a0133613df25345ae3ad66d3a54622ace433b4708cfba1d857000000000200000000010139e4eb08448b79307e0d5a66608ce2991205aebdf7002a81cf025ecdcb53caf90800000000ffffffff01494412000000000017a9143ccee79bb3d84f5853344d86a6c27c332d3177e88702473044022038b8232e53cf8aa12119a9defd59ee4a726


OP_RETURN



Version: 02000000
Unknown: 0001
Input Count: 01
Input TXID: 4c3e8fdcbdb2d7771ceecea33790db2faf1e7e7fb30b4908e362b75f30e8620f
Input VOUT: 00000000
Input scriptSig Size: 00
scriptSig: N/A?
Input sequence: ffffffff

Output count: 08
Output amount 1: dea8ea0000000000

19
76a914690a705c92c496268bdf6294e6ad152426177d4088ac47210c000000000017a91486bb116c40df167ff1802cd565333aac2565a74a8720880f000000000017a9145873c70242f2be3a5ac7d9f6ee6d9cefd7d8d3ca87286da72300000000160014e33c8f6aae2b289b6080372a6b8ca21bd64857e7d78a43000000000017a9146b6e158872c4b2ee476bdbfc5b858e7002199453871fc221010000000017a9142d07f34e3a732c879dec7dafae4df31b61d8616987860602000000000017a9140895f56dc0b5daed9fa1fad7ad0218d4c1799bc08720cc0e000000000017a914bca4c7aa6ef215befdd0a2b286a74c4d1fb0a49d870247304402204be38bb1975b4d643b5c92c002bd4a14cd01a746511e383970675c8b26d398af022074b5a947aee8aef2752529dafc6a7512e79d91df00f222ccab1581f2c44890dd012102136ede1d2862ce7b4e2f514317eae3171b89707626a6b4527eab395291fa950500000000010000000001011a9c47c46070f83f096f871cf37eafe9d98d73ad18303d538b18743d7ca36be90100000000ffffffff0174196c00000000001976a9145908afb5dbda2f0d91a3c503bfa91286bdcbdb8a88ac02483045022100bda9d1ed986253dbeaca80ee01be36570a89b0257264cab41d011ae884673d560220715f74a16795a201fca092b6500a896d13f556fb74645bd0fb0f9cd91cab6ce3012103a2a5c997b98cb2a0133613df25345ae3ad66d3a54622ace433b4708cfba1d857000000000200000000010139e4eb08448b79307e0d5a66608ce2991205aebdf7002a81cf025ecdcb53caf90800000000ffffffff01494412000000000017a9143ccee79bb3d84f5853344d86a6c27c332d3177e88702473044022038b8232e53cf8aa12119a9defd59ee4a726
